:10000000C0C000005CC50000D8C00000D6C0000021
:10001000D4C00000D2C00000D0C00000CEC000009C
:10002000CCC0000017C500000C9427100C94ED10F4
:10003000C4C00000C2C00000C0C00000BEC00000BC
:1000400004C700000C945909B8C00000B6C00000F5
:100050006AC50000B2C00000B0C00000AEC0000021
:10006000ACC00000AAC00000A8C00000A6C00000EC
:10007000A4C00000A2C00000A0C000009EC00000FC
:100080009CC000009AC0000098C0000096C000000C
:1000900094C0000092C0000090C000008EC000001C
:1000A0008CC000008AC0000088C000005D0C7E0C7F
:1000B000540D7E0C540DC30CE00C540D100D270D87
:1000C0004E03780075006D003100350034003100BA
:1000D000200066006C006F00700070007900200046
:1000E000610064006100700074006500720020000F
:1000F0002800500052004F004D00490043005200BC
:100100004F005F00540041005000450029000000EE
:100110003A034E0061007400650020004C0061004D
:10012000770073006F006E00200061006E006400B5
:1001300020004F00700065006E00430042004D003B
:1001400020007400650061006D00000004030904D4
:100150000902200001010080320904000002FF00B2
:1001600000000705830220000007050402200000AC
:1001700012011001FF000008D01604050807010253
:10018000030111241FBECFEFDAE0DEBFCDBF11E0C7
:10019000A0E0B1E0E8EAF2E202C005900D92A032E0
:1001A000B107D9F721E0A0E2B1E001C01D92AD3462
:1001B000B207E1F7FED00C94521122CF80913D019D
:1001C000089581E00E941C0C10923D0181E0809313
:1001D000200108951092200110923B0180E00C94C0
:1001E0001C0C0F931F93CF93DF93CDB7DEB72897E7
:1001F0000FB6F894DEBF0FBECDBF8091450180766B
:100200008032A1F58E010F5F1F4F88E0F801119237
:100210008A95E9F7B801809146010E94810A8F3FD3
:1002200021F484E00E941C0C21C09091E800977F8B
:100230009093E8009091450197FF0BC0682F880FBD
:10024000770BC8010E946A0E8091E800982F9B7F6F
:1002500008C08091E80080FFFCCF8091E800982FD3
:100260009E7F9093E8008F778093E80028960FB6E2
:10027000F894DEBF0FBECDBFDF91CF911F910F91DC
:100280000895E9EEF0E08081877091E090933D0160
:1002900094E09083ABEEB0E09C9190629C9393E0ED
:1002A00090839C9190629C9380830895CF93A895AE
:1002B00080913D01811108C00E94370CC82F88230E
:1002C00029F00E942D0C03C0C0E001C0C1E08C2FBA
:1002D000CF9108958091E9008770E0E0F1E021E09E
:1002E00030E0DF0190819923E9F09093E9003196A5
:1002F000A9010C9002C0440F551F0A94E2F74093E5
:10030000EA001092EA009091EB0098609093EB0065
:100310009091EB0095FFE5CF9091EB009061909369
:10032000EB00DFCF8093E9000895D4DF46E261E877
:1003300083E00E945E0D46E260E884E00E945E0D6C
:1003400082E00E941C0C81E080933B01089524E030
:100350002093E90070E04EED50E00E94360E80914F
:100360003D0181110BC08091E800982F9B7F9093F5
:10037000E8008F778093E80081E0089580E0089599
:1003800023E02093E90070E04EED50E00E94020E61
:1003900080913D0181110BC08091E800982F9E7FD4
:1003A0009093E8008F778093E80081E0089580E0E3
:1003B0000895CF93DF93CDB7DEB727970FB6F894A4
:1003C000DEBF0FBECDBF90E080E80FB6F8948093FB
:1003D0006100909361000FBE9EE088E10FB6F89433
:1003E000A895809360000FBE909360000E94EA0F72
:1003F00080912001811102C0A895FACF0E940D0CB6
:1004000080E00E941C0CBAD38E010B5F1F4F83E06B
:10041000F82EA89580913B018823A9F18091440191
:10042000843059F58093E9008091E80085FF25C06C
:1004300064E0CE0101968BDF811104C084E00E944C
:100440001C0C1BC0F8018F2D11928A95E9F7B80199
:10045000CE0101960E94210B18162CF48D8363E0C7
:10046000C8018EDF0AC0882341F084E00E941C0C82
:100470008091EB0080628093EB0018DF8111CACF7E
:1004800010923D01C7CF809120018111C2CFA89564
:10049000FACF80E090E00E943C1180950895682F8B
:1004A000609580E090E00C944411E2E1F1E08081FD
:1004B000806880830895489904C08091120187FF65
:1004C00004C0F3DF8EEF90E0089581E090E008959E
:1004D0008091120180FD07C08091120181FD06C04C
:1004E0008DEF90E0089584E090E0089585E090E03D
:1004F0000895E2E1F1E080818E7F808380818D7FAD
:1005000080830895E2E1F1E080818061808382E070
:1005100084B985B917B88FEF88B91AB88BB908951F
:10052000109280008AE196E0909389008093880081
:100530008DE0809381000895E8E6F0E080818E7F71
:100540008083EFE6F0E080818C7D8083EBE6F0E055
:1005500080818B7F8083E8988FEF86BB8BBB81E0A7
:100560008CBB089585B78F7E85BF5098519A589A55
:1005700059980895CF93DF93D82FCFB7F894B9DF68
:10058000D23039F080911201806180931201219A5A
:10059000299A2598C5DFD0DFCFBFDF91CF9108958D
:1005A0000F931F93CF93DF93CFB7F8941AB10BB18A
:1005B000D5B710921201D6DF7EDF0BB91AB9D5BFBD
:1005C000CFBF019719F083E090E002C082E090E095
:1005D000DF91CF911F910F9108951F93CF93DF93D8
:1005E000EC011FB7F894809112018064809312018E
:1005F000809112018F7D8093120184DFB3DF90DF41
:100600009BDF209721F084E091E0998388831FBFCE
:10061000DF91CF911F910895CF93DF934CDFEC01D1
:100620008E3F910519F481E0A5DF09C08091120188
:10063000806180931201219A2998C8E0D0E0CE0110
:10064000DF91CF910895CF93DF9335DFEC018E3F9B
:10065000910519F481E08EDF09C08091120180615B
:1006600080931201219A299AC9E0D0E0CE01DF914E
:10067000CF910895CF93DF93DFB7F894A8951092A8
:10068000270126DF059711F482E074DF81E090E016
:10069000909311018093100135DF80916400877F72
:1006A000809364001092800080918100877E809307
:1006B0008100809181008068809381008091120187
:1006C00086FF04C0809181008F7B03C080918100F0
:1006D000806480938100809181008160809381009B
:1006E00080918100897F80938100C1E0C0936F0079
:1006F00054985C9A22982A9A85B78F7E85BFC093BA
:10070000680010926B002EDFE8988091690083608A
:10071000809369008FEF86BB8BBBCCBB7DDF8E3FA8
:10072000910511F4DFBF0DC0809112018B7F809382
:10073000120180911201816080931201DFBF84E079
:1007400090E0DF91CF910895CF93DF93CFB7F894E6
:10075000A89510922701BCDE049711F482E00ADF0D
:1007600081E090E09093110180931001CBDE8091A5
:100770006400877F809364008091120185FF09C027
:1007800080918000806C8093800081E080932501BF
:100790000CC08091800080688093800080918000F0
:1007A0008F7B809380001092250180918200806869
:1007B0008093820010922601809180008C7F80932C
:1007C000800088E080938100809181008F7E8093FB
:1007D00081008091810081608093810080918100FF
:1007E000897F8093810082E080936F00259A229810
:1007F0002A9A85B78F7E85BFD1E0D093680010928A
:100800006B00B0DEE8988091690083608093690096
:100810008FEF86BB8BBBDCBBFFDE8E3F910511F4F7
:10082000CFBF13C080911201877F8093120180E8AF
:100830009BEB9093890080938800809112018260E5
:1008400080931201CFBF85E090E0DF91CF910895B2
:10085000CF93DF933DDEEC018D3F910579F02BDEE8
:10086000EC018E3F910519F481E084DE07C01A99EE
:1008700003C0C6E0D0E002C0C7E0D0E0CE01DF9107
:10088000CF910895CF93DF93DFB722DE8D3F91059F
:1008900019F17894C0E00FDE8E3F910561F0C1112F
:1008A0000AC080912701811106C0C3B1C2FBCC27C9
:1008B000C0F9A895F0CFDFBF80912701811107C053
:1008C000C11108C081E056DE8EEF90E005C087EFD1
:1008D00090E002C087E090E0DF91CF910895CF9340
:1008E000DF93DFB7F5DD8D3F910519F17894C1E015
:1008F000E2DD8E3F910561F0CC2351F0809127011C
:10090000811106C0C3B1C2FBCC27C0F9A895F0CFB6
:10091000DFBF80912701811107C0CC2341F081E026
:1009200029DE8EEF90E005C087EF90E002C086E000
:1009300090E0DF91CF91089586DEEFE6F0E08081D0
:100940008E7D8083EBE6F0E080818B7F8083E8986A
:100950008FEF86BB8BBB81E08CBBE2E1F1E0808155
:100960008B7F80830895CF93DF93B2DD0497B9F531
:10097000A2DDEC0181E0CE3FD10511F4FBDD31C0F9
:100980008CBBE89A10928500109284001092360178
:1009900010923701109238011092390110923301F0
:1009A000109232019FEF96BB809112018460809378
:1009B000120184E080936B0080916F0080628093CD
:1009C0006F009BBBB59A44DF069721F0B5DFCBEFF4
:1009D000D0E007C0C0911001D091110102C0CDEF4D
:1009E000D0E0CE01DF91CF9108952DDE1092260147
:1009F000EBE6F0E080818B7F8083E8988FEF86BB09
:100A00008BBB81E08CBB80E09DE790938900809355
:100A10008800E2E1F1E08081877F80830895CF93B1
:100A2000CFB781E0809327018091120182FD84DF9E
:100A30008091120183FDD9DFF89464DD81E09ADDB5
:100A400091DD87EF90E09093110180931001CFBF6B
:100A5000CF9108951F920F920FB60F9211242F93EA
:100A60003F934F935F936F937F938F939F93AF9336
:100A7000BF93EF93FF938091120182FF04C0809196
:100A80001301811159DF8091120183FF07C0ADDF8F
:100A90008AEF90E09093110180931001FF91EF9104
:100AA000BF91AF919F918F917F916F915F914F9186
:100AB0003F912F910F900FBE0F901F9018951F928E
:100AC0000F920FB60F9211242F933F934F935F9382
:100AD0006F937F938F939F93AF93BF93EF93FF9306
:100AE000E89881E08CBB8091120182FD25DF809126
:100AF000120183FD7ADFD9DC8EEF90E09093110133
:100B000080931001FF91EF91BF91AF919F918F91D1
:100B10007F916F915F914F913F912F910F900FBEF9
:100B20000F901F9018951F920F920FB60F921124DD
:100B30008F939F93AF93BF938091120182FF14C054
:100B40008091360190913701A0913801B09139011F
:100B50000196A11DB11D8093360190933701A0939A
:100B60003801B093390101C0A895BF91AF919F9111
:100B70008F910F900FBE0F901F901895CF93DF931A
:100B800000D0CDB7DEB71A8219821092210108DD9C
:100B9000029731F4CE01019620DD80E2809321019D
:100BA00089819A810F900F90DF91CF9108956130E4
:100BB00011F423E003C061110DC024E02093E9008B
:100BC0009093240180932301609303018091E800B6
:100BD00085FFFCCF089580910301813099F4209125
:100BE000F3008091F20090E0922B892B31F48091F8
:100BF000230190912401892BE9F08091E800982F3E
:100C00009E7F13C0811116C0809123019091240111
:100C1000009719F06EED70E0CAD78091E80085FD6D
:100C200009C08091E800982F9B7F9093E8008F7710
:100C30008093E8008FE080930301109224011092CA
:100C4000230108958093F100809123019091240164
:100C5000019790932401809323018091E80085FF00
:100C600004C080913D01819508958091E800982FFE
:100C70009E7F9093E8008F778093E8008091E80052
:100C800085FDEFCF80913D018823C1F3EACFCF925C
:100C9000DF92FF920F931F93CF93DF9300D000D08A
:100CA000CDB7DEB7FFB68091120189838091130121
:100CB0008A831B82EEDB8C83F894A89561E08FEF2A
:100CC0009FEF75DF8FE39CE90197F1F700C000000B
:100CD0008E010F5F1F4F6E0195E0C90ED11CF80108
:100CE00081918F01AFDF882329F075DFFFBE89EF87
:100CF00090E007C00C151D0591F76DDFFFBE8DE07C
:100D000090E00F900F900F900F90DF91CF911F9177
:100D10000F91FF90DF90CF900895809136019091D0
:100D20003701A0913801B091390180932E01909341
:100D30002F01A0933001B093310180913401909143
:100D400035012091320130913301821B930B909336
:100D50002D0180932C012091340130913501809137
:100D60003201909133012817390798F480912E01B0
:100D700090912F01A0913001B09131010197A1090B
:100D8000B10980932E0190932F01A0933001B0936D
:100D900031011092360110923701109238011092F1
:100DA0003901809134019091350190933301809302
:100DB000320180912E0190912F01A0913001B091CC
:100DC0003101892B8A2B8B2B31F480912C0190914E
:100DD0002D0197FF23C060912E0170912F0180910A
:100DE00030019091310180682DDF811126C0809102
:100DF0002E0190912F01A0913001B0913101892FE6
:100E000021DF81111AC080912E0190912F01A091B4
:100E10003001B091310116DF81110FC080912C019A
:100E200090912D01892F0EDF811107C080912C0137
:100E300090912D0107DF882339F07EDD89EF90E066
:100E4000909311018093100108951F920F920FB695
:100E50000F9211242F933F934F935F936F937F9340
:100E60008F939F93AF93BF93EF93FF9380918600EF
:100E70009091870090933501809334019091810087
:100E800080E489278093810080913401909135011D
:100E900081159E4FB0F4B09B14C0809136019091A3
:100EA0003701A0913801B09139010196A11DB11D02
:100EB0008093360190933701A0933801B0933901A4
:100EC000B09A2BDFFF91EF91BF91AF919F918F91DE
:100ED0007F916F915F914F913F912F910F900FBE36
:100EE0000F901F901895CF93CFB7F894A89561E015
:100EF0008FEF9FEF5CDE2FEF88E596E0215080407A
:100F00009040E1F700C000002EDD90931101809326
:100F100010017894F89499DF78948091120182FFFF
:100F200002C0A895FACF109224011092230153DE3B
:100F300081E020DBCFBF80911001909111010197DA
:100F400029F0809110019091110102C08AE090E097
:100F5000CF910895FC018091E80085FF12C0809137
:100F60003D01811120C08091F10080838091230197
:100F7000909124010197909324018093230180E0B4
:100F800008959091E800892F8B7F8093E8009F77E8
:100F90009093E8008091E80085FDE1CF80913D01CC
:100FA0008823C1F3DCCF8FEF0895CF92DF92FF92B9
:100FB0000F931F93CF93DF9300D000D0CDB7DEB750
:100FC000FFB6F894A89560E08FEF9FEFF0DD8FE318
:100FD0009CE90197F1F700C000008E010F5F1F4FE1
:100FE0006E0195E0C90ED11CC801B4DF882329F039
:100FF000F2DDFFBE88EF90E01DC00F5F1F4F0C15A4
:101000001D0591F7809112018F79809312019091C3
:10101000120189818076892B809312018A818093C5
:1010200013018B818F3F11F48C8139DAD4DDFFBE3F
:101030008CE090E00F900F900F900F90DF91CF9188
:101040001F910F91FF90DF90CF900895CF93DF9382
:1010500000D0CDB7DEB7CE0102967CDF811180C013
:10106000CE01019677DF81117BC08A81298187FDBE
:1010700025C010922E0110922F0110923001109273
:10108000310190E090932D0180932C0180912C01EF
:1010900090912D01982F8827820F911D90932D01FB
:1010A00080932C018091280190912901A0912A011F
:1010B000B0912B010297A109B10972C08F7790E01E
:1010C000A0E0B0E080932E0190932F01A093300117
:1010D000B093310180912E0190912F01A0913001A8
:1010E000B0913101BA2FA92F982F8827820F911D17
:1010F000A11DB11D80932E0190932F01A09330016B
:10110000B0933101CE01029625DF811129C0809173
:101110002E0190912F01A0913001B0913101BA2F91
:10112000A92F982F88272A81820F911DA11DB11DFB
:1011300080932E0190932F01A0933001B093310141
:10114000CE01029607DF81110BC08A8190E0909357
:101150002D0180932C01CE010296FCDE882341F004
:1011600044DC88EF90E0909311018093100120C03F
:1011700080912C0190912D01982F88272A81820F30
:10118000911D90932D0180932C01809128019091C5
:101190002901A0912A01B0912B010597A109B1095C
:1011A0008093280190932901A0932A01B0932B01E9
:1011B0000F900F90DF91CF910895CF93DF9388D94F
:1011C000059709F070C077D9EC018E3F910519F4AD
:1011D00081E0D0D96AC080911201886080931201A9
:1011E000C1E0CCBBE89A84E080936B002FDF1092C3
:1011F00085001092840080912E0190912F01A09182
:101200003001B0913101892B8A2B8B2B19F58091FC
:101210002C0190912D019093890080938800C093B8
:10122000260180912501811108C080918000806C89
:1012300080938000C093250127C080918000806842
:1012400080938000809180008F7B8093800010923B
:1012500025011AC01092260180912C0190912D0138
:1012600097FD0CC080912C0190912D019058909386
:101270002D0180932C0180E090E802C08FEF9FEF5A
:1012800090938900809388008FEF86BB8BBBE0DA58
:10129000069721F0AADBCCEFD0E007C0C091100187
:1012A000D091110102C0CDEFD0E0CE01DF91CF91FE
:1012B00008951F920F920FB60F9211242F933F9310
:1012C0004F935F936F937F938F939F93AF93BF934E
:1012D000EF93FF938091120183FD02C0A8957DC01A
:1012E00080912601811120C080912E0190912F01C3
:1012F000A0913001B09131010197A109B10980930A
:101300002E0190932F01A0933001B0933101809171
:101310002E0190912F01A0913001B0913101892BC4
:101320008A2B8B2BE1F053C08091280190912901E9
:10133000A0912A01B0912B01892B8A2B8B2B11F4C0
:1013400054DB4BC083DE80912E0190912F01A09140
:101350003001B0913101892B8A2B8B2B21F58091A3
:101360002C0190912D01909389008093880091E049
:101370009093260180912501811108C08091800001
:10138000806C809380009093250127C0809180001D
:10139000806880938000809180008F7B80938000A4
:1013A000109225011AC01092260180912C01909173
:1013B0002D0197FD0CC080912C0190912D0190582A
:1013C00090932D0180932C0180E090E802C08FEF74
:1013D0009FEF9093890080938800FF91EF91BF91D8
:1013E000AF919F918F917F916F915F914F913F91BD
:1013F0002F910F900FBE0F901F901895CF93CFB7DE
:10140000F894A89560E08FEF9FEFD1DB2FEF84E693
:1014100094E0215080409040E1F700C000002FEFA1
:1014200086E791E0215080409040E1F700C0000045
:101430008FE39CE90197F1F700C0000007DE80917F
:101440002E0190912F01A0913001B0913101809334
:10145000280190932901A0932A01B0932B01809138
:10146000280190912901A0912A01B0912B0140916E
:101470002C0150912D01DC019927882760E070E054
:10148000842B952BA62BB72B8093280190932901B1
:10149000A0932A01B0932B0190DE909311018093C9
:1014A000100178948091120183FF02C0A895FACFB1
:1014B000109224011092230180912801909129011A
:1014C000A0912A01B0912B01892B8A2B8B2B31F013
:1014D0008091EB0080628093EB0001C07CDB81E0B7
:1014E00049D8CFBF8091100190911101019729F047
:1014F000809110019091110102C08BE090E0CF919A
:101500000895CF93DF93EB01823009F484C038F45F
:10151000882309F43DC0813009F43DC08AC084307D
:1015200031F008F473C0853009F479C082C080912D
:10153000E800877F8093E8008091E80080FFFCCF7F
:101540008091E800982F9E7F9093E8008F7780939A
:10155000E8002FEF81EE94E0215080409040E1F7C9
:1015600000C000000FB6F894A895809160008861D3
:1015700080936000109260000FBE37D5F8941092EF
:10158000810010928900109288000C94001C55C0B4
:10159000188281E053C083E04FD180913E01909149
:1015A0003F01892B29F4EADA90933F0180933E01B1
:1015B00080913E0190913F01892BD9F188E0888389
:1015C00083E18983809121018A839091220199236B
:1015D00081F081608A8381E080932201E0913E0165
:1015E000F0913F010190F081E02D80E009950E948B
:1015F00041018091220180688093220180913B010A
:10160000811119C08A8182608A8315C010922201DB
:1016100082E012D112C08091220180FD0EC0E091C3
:101620003E01F0913F010190F081E02D80E00995AD
:1016300004C08FEF03C088E001C080E0DF91CF914C
:101640000895CF92DF92EF92FF921F93CF93DF9393
:101650007C01EB01809122018E7F80932201F701B2
:101660001081C280D38083E0E7D0143409F463C0D2
:1016700080F4193009F43FC018F41830F9F067C04D
:10168000123409F461C0133409F061C081E090E0C4
:101690004EC0173409F454C040F4153409F44EC058
:1016A000163409F054C0D4D842C0183409F44AC0E2
:1016B000193409F04CC00E94230339C080912101E4
:1016C00084FD0AC0F7018181807F803A81F0803BF0
:1016D00081F0803109F03BC0E0913E01F0913F0183
:1016E0000480F581E02DC601099580E031C0FBDB67
:1016F0001EC0CDDA1CC080912101F701618184FDFB
:1017000008C0862F807F803A79F0803B79F0803165
:10171000F1F46F70E0913E01F0913F010280F3819E
:10172000E02DC601099503C069DE01C03EDC9A8345
:10173000898382E00DC00E943A03F9CF05D8F7CF24
:10174000A1D8F5CFCCD8F3CF0E940C03F0CF8FEF08
:10175000DF91CF911F91FF90EF90DF90CF90089590
:101760000F931F93CF93DF93EA018901F901108250
:10177000292F33272230310561F02330310571F0F4
:101780002130310509F03EC082E190E020E731E0F0
:101790003DC080E290E020E531E038C099278130FB
:1017A0009105A9F088F082309105A1F0039751F5D9
:1017B00080E090E061D590E0809590959927EEE1EA
:1017C000F1E02AE030E00CC0ECE4F1E005C0E0E13B
:1017D000F1E002C0E0ECF0E0849190E09F0116C0DF
:1017E000009739F0B9012ED5C09692938293CB0120
:1017F000F7CF8091160190E022E0F801208326E1E6
:1018000031E004C080E090E020E030E039832883BC
:10181000DF91CF911F910F91089580E28AB98BB922
:101820008AE196E09093890080938800E1E8F0E0F7
:1018300080818D608083089580933A01823049F0E1
:1018400018F4882341F00895833029F0843019F08A
:1018500008955D9808955D9A089580913A018350A6
:10186000823020F49BB180E289278BB90895B19B27
:1018700003C0B19A81E0089580E008951F93CF934B
:10188000DF9300D01F92CDB7DEB7E5E4F1E08DE441
:1018900091E02091F10021938E179F07D1F780915D
:1018A000450190914601492F50E04A30510508F01A
:1018B000FBC0FA01EA5AFF4FD9C4803879F0823868
:1018C00009F0F2C0809149018093E9008091EB001A
:1018D00085FB882780F91092E90006C080914001BD
:1018E00090914101911182609091E800977F9093CF
:1018F000E8008093F1001092F1009EC0282F2D7F08
:1019000009F0D2C0882319F0823061F0BEC0809106
:101910004701813009F0B9C0933009F080E080932D
:1019200041012BC080914701811127C0809149015D
:10193000877009F4AAC08093E9002091EB0020FF92
:101940001CC0933021F48091EB00806214C0909110
:10195000EB0090619093EB0021E030E0A90102C020
:10196000440F551F8A95E2F74093EA001092EA006F
:101970008091EB0088608093EB001092E9008091E9
:10198000E800877F60C081118FC01091470180916E
:10199000E800877F8093E800BBD08091E80080FD5D
:1019A00005C0809144018111F8CF6FC0812F8F77DE
:1019B00019F093E09093440180688093E30065C040
:1019C0008058823008F070C09E012D5F3F4FAE01FD
:1019D0004F5F5F4F609149018091470190914801AD
:1019E000BFDEBC01892B09F450C08091E800877FDD
:1019F0008093E8002B8189819A81211102C0C9D18D
:101A000005C0213011F425D201C064D18091E800D5
:101A1000982F9B7F9093E8008F778093E80035C0E4
:101A2000803809F041C08091E800877F8093E8000A
:101A3000809142018093F1008091E800982F9E7F71
:101A40009093E8008F778093E80062D01EC08111E8
:101A50002BC0809147019091480199270297ACF4DF
:101A60008091E800877F8093E80080914701809310
:101A700042014ED080914201811102C083E001C039
:101A800084E0809344010E9495018091E80083FFE7
:101A90000EC08091EB0080628093EB008091E800A3
:101AA000877F8093E80003C00E94F100EECF0F9083
:101AB0000F900F90DF91CF911F9108958093E900CF
:101AC000EBEEF0E0808181608083EDEEF0E010824B
:101AD0006093EC0040838091EE00881F8827881F68
:101AE00008951092F40080E08093E9001092F000D5
:101AF0001092E8009091ED009D7F9093ED00909101
:101B0000EB009E7F9093EB008F5F873069F708951D
:101B10008091450187FF12C08091E80082FD05C0D9
:101B2000809144018111F8CF16C08091E800982F70
:101B30009B7F0CC080914401882369F08091E8006C
:101B400080FFF8CF8091E800982F9E7F9093E80067
:101B50008F778093E800089595E62091EC00822F1E
:101B6000817020FF05C08091E80080FF05C019C08A
:101B70002091E80022FD1AC080914401882399F049
:101B80008091EB0085FD11C08091E10082FFE5CFDF
:101B90008091E1008B7F8093E1009150F1F683E02A
:101BA000089580E0089582E0089581E008950F93FC
:101BB0001F93CF93DF93EC018B01CEDF81111DC00A
:101BC0002097D1F08091E80085FD12C08091E80057
:101BD000982F9B7F9093E8008F778093E800011502
:101BE000110559F3F8010995813039F784E005C0F2
:101BF0008091F1002197E4CF80E0DF91CF911F9198
:101C00000F910895EF92FF920F931F93CF93DF935D
:101C10008C01EB017A01A0DF811121C02097F1F046
:101C20008091E80085FD12C08091E800982F9E7F8A
:101C30009093E8008F778093E800E114F10459F362
:101C4000F7010995813039F784E009C0F8018081F6
:101C50008093F10021970F5F1F4FE0CF80E0DF916D
:101C6000CF911F910F91FF90EF900895EF92FF9207
:101C70000F931F93CF93DF938C01EB017A016CDFFD
:101C8000811121C02097F1F08091E80085FD12C0FC
:101C90008091E800982F9B7F9093E8008F77809346
:101CA000E800E114F10459F3F7010995813039F79F
:101CB00084E009C08091F100F801808321970F5FD3
:101CC0001F4FE0CF80E0DF91CF911F910F91FF90E8
:101CD000EF90089520914B0130914C012617370762
:101CE00068F06115710559F42091E800322F3E7FAC
:101CF0003093E8002F772093E80001C0B90140E05D
:101D000061157105A9F12091E80023FD3EC02091E5
:101D1000E80022FD34C0209144012223C1F120912A
:101D2000E80020FFEDCF4091F3002091F20030E079
:101D3000342BFC01CF016115710559F028303105B4
:101D400040F481918093F100615071092F5F3F4F02
:101D5000F1CF41E02830310509F040E02091E80062
:101D6000322F3E7F3093E8002F772093E800C8CFD2
:101D70004111C9CF04C080914401882341F0809172
:101D8000E80082FFF8CF80E0089581E0089582E0C6
:101D9000089520914B0130914C012617370768F0C8
:101DA0006115710559F42091E800322F3E7F309380
:101DB000E8002F772093E80001C0B90140E06115E9
:101DC0007105B1F12091E80023FD3FC02091E800AA
:101DD00022FD35C0209144012223C9F12091E80061
:101DE00020FFEDCF4091F3002091F20030E0342B42
:101DF000FC01CF016115710561F02830310548F40F
:101E000084918093F100615071092F5F3F4F3196AB
:101E1000F0CF41E02830310509F040E02091E800A2
:101E2000322F3E7F3093E8002F772093E800C7CF12
:101E30004111C8CF04C080914401882341F08091B2
:101E4000E80082FFF8CF80E0089581E0089582E005
:101E50000895CF92DF92EF92FF920F931F93CF934B
:101E6000DF936C01EB0180914B0190914C0186173F
:101E7000970760F0209759F48091E800982F9E7F93
:101E80009093E8008F778093E80001C0EC0130E088
:101E90002097E1F18091E80083FD45C08091E80042
:101EA00082FD3BC080914401882309F43EC08091AB
:101EB000E80080FFEDCF8091F3000091F20010E088
:101EC000182B7801C701801B910B8C0D9D1D20974D
:101ED00061F028E0E216F10440F4CED18093F100E5
:101EE00021972FEFE21AF20AEDCF31E028E0E21657
:101EF000F10409F030E02091E800422F4E7F40933A
:101F0000E8002F772093E8006C01C2CF3111C2CFD7
:101F100004C080914401882341F08091E80082FF51
:101F2000F8CF80E003C081E001C082E0DF91CF9173
:101F30001F910F91FF90EF90DF90CF9008957AD08E
:101F400081D01092440110924201109241011092EE
:101F500040018AE482BF80E189BD89B5826089BD84
:101F600009B400FEFDCF8091D800982F9F77909301
:101F7000D80080688093D8008091D70081608093DA
:101F8000D7008091D8008F7D8093D8008091E000A9
:101F90008B7F8093E0008091E0008E7F8093E00053
:101FA0008091E1008E7F8093E1008091E20081606A
:101FB0008093E2008091E100877F8093E10080912F
:101FC000E20088608093E2008091D8008160809375
:101FD000D8000895B4DFE8EDF0E08081806180836F
:101FE00081E08093430178940895A9DFE0EEF0E06A
:101FF000808181608083E8EDF0E080818F7780834D
:1020000019BC80818F7E80831092430108950895CA
:10201000CF9380914401882359F0C091E900C770A3
:102020001092E9008091E80083FD28DCC093E9006C
:10203000CF910895E8EDF0E080818E7F808310924B
:10204000E20008951092DA001092E10008951F92C4
:102050000F920FB60F9211242F933F934F935F93DC
:102060006F937F938F939F93AF93BF93EF93FF9360
:102070008091DA0080FF17C08091D80080FF13C0E4
:102080008091DA008E7F8093DA008091D90080FF02
:1020900006C081E0809344010E94E10004C01092D8
:1020A00044010E94EA008091E10080FF1DC0809100
:1020B000E20080FF19C08091E1008E7F8093E100F3
:1020C0008091E2008E7F8093E2008091E200806147
:1020D0008093E2008091D80080628093D80019BC80
:1020E00085E08093440193DF8091E10084FF2AC062
:1020F0008091E20084FF26C080E189BD89B58260BD
:1021000089BD09B400FEFDCF8091D8008F7D8093FA
:10211000D8008091E1008F7E8093E1008091E20001
:102120008F7E8093E2008091E20081608093E200E4
:1021300080914201811102C083E001C084E080935C
:10214000440165DF8091E10083FF28C08091E200B7
:1021500083FF24C08091E100877F8093E10082E0CB
:1021600080934401109242018091E1008E7F809320
:10217000E1008091E2008E7F8093E2008091E20096
:1021800080618093E200ADDC42E060E080E096DCBC
:102190008091F00088608093F00039DF8091E10049
:1021A00082FF0AC08091E20082FF06C08091E100B8
:1021B0008B7F8093E1002BDFFF91EF91BF91AF9177
:1021C0009F918F917F916F915F914F913F912F914F
:1021D0000F900FBE0F901F9018951F920F920FB681
:1021E0000F9211240F931F932F933F934F935F935D
:1021F0006F937F938F939F93AF93BF93CF93EF93FF
:10220000FF9309EE10E0F801C081C77001DFE8EE2E
:10221000F0E08081877F8083F801C083FF91EF9198
:10222000CF91BF91AF919F918F917F916F915F916E
:102230004F913F912F911F910F910F900FBE0F90D3
:102240001F901895AA1BBB1B51E107C0AA1FBB1FFB
:10225000A617B70710F0A61BB70B881F991F5A9532
:10226000A9F780959095BC01CD010895EE0FFF1F51
:102270000590F491E02D0994F999FECF92BD81BDAE
:10228000F89A992780B50895262FF999FECF1FBA9D
:1022900092BD81BD20BD0FB6F894FA9AF99A0FBE8F
:0822A00001960895F894FFCFA8
:1022A8000304000F0F0500000000000000000000FC
:1022B8000100000100000803300030003000000079
:00000001FF
